{
  "contractName": "Marketplace",
  "abi": [
    {
      "inputs": [],
      "payable": false,
      "stateMutability": "nonpayable",
      "type": "constructor"
    },
    {
      "anonymous": false,
      "inputs": [
        {
          "indexed": false,
          "internalType": "uint256",
          "name": "id",
          "type": "uint256"
        },
        {
          "indexed": false,
          "internalType": "string",
          "name": "name",
          "type": "string"
        },
        {
          "indexed": false,
          "internalType": "uint256",
          "name": "price",
          "type": "uint256"
        },
        {
          "indexed": false,
          "internalType": "bool",
          "name": "sold",
          "type": "bool"
        },
        {
          "indexed": false,
          "internalType": "address payable",
          "name": "owner",
          "type": "address"
        }
      ],
      "name": "productCreated",
      "type": "event"
    },
    {
      "anonymous": false,
      "inputs": [
        {
          "indexed": false,
          "internalType": "uint256",
          "name": "id",
          "type": "uint256"
        },
        {
          "indexed": false,
          "internalType": "string",
          "name": "name",
          "type": "string"
        },
        {
          "indexed": false,
          "internalType": "uint256",
          "name": "price",
          "type": "uint256"
        },
        {
          "indexed": false,
          "internalType": "bool",
          "name": "sold",
          "type": "bool"
        },
        {
          "indexed": false,
          "internalType": "address payable",
          "name": "owner",
          "type": "address"
        }
      ],
      "name": "productPurchased",
      "type": "event"
    },
    {
      "constant": true,
      "inputs": [],
      "name": "name",
      "outputs": [
        {
          "internalType": "string",
          "name": "",
          "type": "string"
        }
      ],
      "payable": false,
      "stateMutability": "view",
      "type": "function"
    },
    {
      "constant": true,
      "inputs": [
        {
          "internalType": "uint256",
          "name": "",
          "type": "uint256"
        }
      ],
      "name": "products",
      "outputs": [
        {
          "internalType": "uint256",
          "name": "id",
          "type": "uint256"
        },
        {
          "internalType": "string",
          "name": "name",
          "type": "string"
        },
        {
          "internalType": "uint256",
          "name": "price",
          "type": "uint256"
        },
        {
          "internalType": "bool",
          "name": "sold",
          "type": "bool"
        },
        {
          "internalType": "address payable",
          "name": "owner",
          "type": "address"
        }
      ],
      "payable": false,
      "stateMutability": "view",
      "type": "function"
    },
    {
      "constant": true,
      "inputs": [],
      "name": "totalProducts",
      "outputs": [
        {
          "internalType": "uint256",
          "name": "",
          "type": "uint256"
        }
      ],
      "payable": false,
      "stateMutability": "view",
      "type": "function"
    },
    {
      "constant": false,
      "inputs": [],
      "name": "increaseProductCount",
      "outputs": [],
      "payable": false,
      "stateMutability": "nonpayable",
      "type": "function"
    },
    {
      "constant": false,
      "inputs": [
        {
          "internalType": "string",
          "name": "_name",
          "type": "string"
        },
        {
          "internalType": "uint256",
          "name": "_price",
          "type": "uint256"
        }
      ],
      "name": "createProduct",
      "outputs": [],
      "payable": false,
      "stateMutability": "nonpayable",
      "type": "function"
    },
    {
      "constant": false,
      "inputs": [
        {
          "internalType": "uint256",
          "name": "_id",
          "type": "uint256"
        }
      ],
      "name": "purchaseProduct",
      "outputs": [],
      "payable": true,
      "stateMutability": "payable",
      "type": "function"
    }
  ],
  "bytecode": "0x6080604052600060025534801561001557600080fd5b506040518060400160405280601181526020017f4669727374204d61726b6574706c61636500000000000000000000000000000081525060009080519060200190610061929190610067565b5061010c565b828054600181600116156101000203166002900490600052602060002090601f016020900481019282601f106100a857805160ff19168380011785556100d6565b828001600101855582156100d6579182015b828111156100d55782518255916020019190600101906100ba565b5b5090506100e391906100e7565b5090565b61010991905b808211156101055760008160009055506001016100ed565b5090565b90565b610e928061011b6000396000f3fe6080604052600436106100555760003560e01c806306fdde031461005a57806338e76a03146100ea5780637acc0b20146101185780639b9d326d14610218578063e9300c6c14610243578063f24cfb0414610315575b600080fd5b34801561006657600080fd5b5061006f61032c565b6040518080602001828103825283818151815260200191508051906020019080838360005b838110156100af578082015181840152602081019050610094565b50505050905090810190601f1680156100dc5780820380516001836020036101000a031916815260200191505b509250505060405180910390f35b6101166004803603602081101561010057600080fd5b81019080803590602001909291905050506103ca565b005b34801561012457600080fd5b506101516004803603602081101561013b57600080fd5b8101908080359060200190929190505050610978565b6040518086815260200180602001858152602001841515151581526020018373ffffffffffffffffffffffffffffffffffffffff1673ffffffffffffffffffffffffffffffffffffffff168152602001828103825286818151815260200191508051906020019080838360005b838110156101d95780820151818401526020810190506101be565b50505050905090810190601f1680156102065780820380516001836020036101000a031916815260200191505b50965050505050505060405180910390f35b34801561022457600080fd5b5061022d610a73565b6040518082815260200191505060405180910390f35b34801561024f57600080fd5b506103136004803603604081101561026657600080fd5b810190808035906020019064010000000081111561028357600080fd5b82018360208201111561029557600080fd5b803590602001918460018302840111640100000000831117156102b757600080fd5b91908080601f016020809104026020016040519081016040528093929190818152602001838380828437600081840152601f19601f82011690508083019250505050505050919291929080359060200190929190505050610a79565b005b34801561032157600080fd5b5061032a610d5d565b005b60008054600181600116156101000203166002900480601f0160208091040260200160405190810160405280929190818152602001828054600181600116156101000203166002900480156103c25780601f10610397576101008083540402835291602001916103c2565b820191906000526020600020905b8154815290600101906020018083116103a557829003601f168201915b505050505081565b600081101580156103dc575060025481105b61044e576040517f08c379a00000000000000000000000000000000000000000000000000000000081526004018080602001828103825260118152602001807f50726f64756374206e6f7420657869737400000000000000000000000000000081525060200191505060405180910390fd5b610456610d71565b600160008381526020019081526020016000206040518060a001604052908160008201548152602001600182018054600181600116156101000203166002900480601f0160208091040260200160405190810160405280929190818152602001828054600181600116156101000203166002900480156105175780601f106104ec57610100808354040283529160200191610517565b820191906000526020600020905b8154815290600101906020018083116104fa57829003601f168201915b50505050508152602001600282015481526020016003820160009054906101000a900460ff161515151581526020016003820160019054906101000a900473ffffffffffffffffffffffffffffffffffffffff1673ffffffffffffffffffffffffffffffffffffffff1673ffffffffffffffffffffffffffffffffffffffff168152505090503481604001511115610617576040517f08c379a00000000000000000000000000000000000000000000000000000000081526004018080602001828103825260138152602001807f796f75722062616c616e6365206973206c6f770000000000000000000000000081525060200191505060405180910390fd5b3373ffffffffffffffffffffffffffffffffffffffff16816080015173ffffffffffffffffffffffffffffffffffffffff1614156106bd576040517f08c379a000000000000000000000000000000000000000000000000000000000815260040180806020018281038252601a8152602001807f62757965722063616e6e6f74206265207468652073656c6c657200000000000081525060200191505060405180910390fd5b806060015115610735576040517f08c379a00000000000000000000000000000000000000000000000000000000081526004018080602001828103825260178152602001807f70726f6475637420697320616c726561647920736f6c6400000000000000000081525060200191505060405180910390fd5b806080015173ffffffffffffffffffffffffffffffffffffffff166108fc349081150290604051600060405180830381858888f1935050505015801561077f573d6000803e3d6000fd5b5033816080019073ffffffffffffffffffffffffffffffffffffffff16908173ffffffffffffffffffffffffffffffffffffffff168152505060018160600190151590811515815250508060016000848152602001908152602001600020600082015181600001556020820151816001019080519060200190610803929190610db8565b506040820151816002015560608201518160030160006101000a81548160ff02191690831515021790555060808201518160030160016101000a81548173ffffffffffffffffffffffffffffffffffffffff021916908373ffffffffffffffffffffffffffffffffffffffff1602179055509050507f45eafa96d407e71fcba6f6172e8f2dafc32dcb535440e4b8d2d8b8fd2dc371aa8282602001518360400151846060015185608001516040518086815260200180602001858152602001841515151581526020018373ffffffffffffffffffffffffffffffffffffffff1673ffffffffffffffffffffffffffffffffffffffff168152602001828103825286818151815260200191508051906020019080838360005b8381101561093657808201518184015260208101905061091b565b50505050905090810190601f1680156109635780820380516001836020036101000a031916815260200191505b50965050505050505060405180910390a15050565b6001602052806000526040600020600091509050806000015490806001018054600181600116156101000203166002900480601f016020809104026020016040519081016040528092919081815260200182805460018160011615610100020316600290048015610a2a5780601f106109ff57610100808354040283529160200191610a2a565b820191906000526020600020905b815481529060010190602001808311610a0d57829003601f168201915b5050505050908060020154908060030160009054906101000a900460ff16908060030160019054906101000a900473ffffffffffffffffffffffffffffffffffffffff16905085565b60025481565b6000825111610af0576040517f08c379a00000000000000000000000000000000000000000000000000000000081526004018080602001828103825260108152602001807f4e616d652069732072657175697265640000000000000000000000000000000081525060200191505060405180910390fd5b60008111610b66576040517f08c379a00000000000000000000000000000000000000000000000000000000081526004018080602001828103825260118152602001807f507269636520697320726571756972656400000000000000000000000000000081525060200191505060405180910390fd5b6002600081548092919060010191905055506040518060a0016040528060025481526020018381526020018281526020016000151581526020013373ffffffffffffffffffffffffffffffffffffffff16815250600160006002548152602001908152602001600020600082015181600001556020820151816001019080519060200190610bf5929190610db8565b506040820151816002015560608201518160030160006101000a81548160ff02191690831515021790555060808201518160030160016101000a81548173ffffffffffffffffffffffffffffffffffffffff021916908373ffffffffffffffffffffffffffffffffffffffff1602179055509050507f67798386ac74b8b42ce222cebb409c6dcd247d4ed3a6f8a94804b5b58abe9ac060025483836000336040518086815260200180602001858152602001841515151581526020018373ffffffffffffffffffffffffffffffffffffffff1673ffffffffffffffffffffffffffffffffffffffff168152602001828103825286818151815260200191508051906020019080838360005b83811015610d1b578082015181840152602081019050610d00565b50505050905090810190601f168015610d485780820380516001836020036101000a031916815260200191505b50965050505050505060405180910390a15050565b600260008154809291906001019190505550565b6040518060a00160405280600081526020016060815260200160008152602001600015158152602001600073ffffffffffffffffffffffffffffffffffffffff1681525090565b828054600181600116156101000203166002900490600052602060002090601f016020900481019282601f10610df957805160ff1916838001178555610e27565b82800160010185558215610e27579182015b82811115610e26578251825591602001919060010190610e0b565b5b509050610e349190610e38565b5090565b610e5a91905b80821115610e56576000816000905550600101610e3e565b5090565b9056fea265627a7a723158204fe85172598a149827a89fe92221f4833dc14925e50055be9fbb4db822b127e464736f6c63430005100032",
  "source": "pragma solidity ^0.5.0;\n\ncontract Marketplace {\n    string public name;\n\n    mapping(uint => Product) public products;\n\n    uint public totalProducts = 0;\n\n    struct Product {\n        uint id;\n        string name;\n        uint price;\n        bool sold;\n        address payable owner;\n    }\n\n    event productCreated(\n        uint id,\n        string name,\n        uint price,\n        bool sold,\n        address payable owner\n    );\n\n    event productPurchased(\n        uint id,\n        string name,\n        uint price,\n        bool sold,\n        address payable owner\n    );\n\n    constructor() public {\n        name = \"First Marketplace\";\n    }\n\n    function increaseProductCount() public {\n        totalProducts++;\n    }\n\n    function createProduct(string memory _name, uint _price) public {\n        require(bytes(_name).length > 0, \"Name is required\");\n        require(_price > 0, \"Price is required\");\n        totalProducts++;\n        products[totalProducts] = Product(\n            totalProducts,\n            _name,\n            _price,\n            false,\n            msg.sender\n        );\n        emit productCreated(totalProducts, _name, _price, false, msg.sender);\n    }\n\n    function purchaseProduct(uint _id) public payable {\n        //checks\n\n        //check id is valid\n        require(_id >= 0 && _id < totalProducts, \"Product not exist\");\n\n        Product memory _product = products[_id];\n\n        //check the balance is high or equal\n\n        require(_product.price <= msg.value, \"your balance is low\");\n\n        //check buyer is not the seller\n\n        require(_product.owner != msg.sender, \"buyer cannot be the seller\");\n\n        //check product is not sold\n\n        require(!_product.sold, \"product is already sold\");\n\n        address(_product.owner).transfer(msg.value);\n        _product.owner = msg.sender;\n        _product.sold = true;\n\n        products[_id] = _product;\n\n        emit productPurchased(\n            _id,\n            _product.name,\n            _product.price,\n            _product.sold,\n            _product.owner\n        );\n    }\n}\n",
  "sourcePath": "/Users/asad/Desktop/marketPlace/src/contracts/MarketPlace.sol",
  "compiler": {
    "name": "solc",
    "version": "0.5.16+commit.9c3226ce.Emscripten.clang"
  },
  "schemaVersion": "3.4.13",
  "updatedAt": "2023-03-29T06:48:21.987Z",
  "networkType": "ethereum",
  "devdoc": {
    "methods": {}
  },
  "userdoc": {
    "methods": {}
  }
}