{
  "contractName": "Marketplace",
  "abi": [
    {
      "constant": true,
      "inputs": [],
      "name": "name",
      "outputs": [
        {
          "name": "",
          "type": "string"
        }
      ],
      "payable": false,
      "stateMutability": "view",
      "type": "function",
      "signature": "0x06fdde03"
    },
    {
      "constant": true,
      "inputs": [
        {
          "name": "",
          "type": "uint256"
        }
      ],
      "name": "products",
      "outputs": [
        {
          "name": "id",
          "type": "uint256"
        },
        {
          "name": "name",
          "type": "string"
        },
        {
          "name": "price",
          "type": "uint256"
        },
        {
          "name": "sold",
          "type": "bool"
        },
        {
          "name": "owner",
          "type": "address"
        }
      ],
      "payable": false,
      "stateMutability": "view",
      "type": "function",
      "signature": "0x7acc0b20"
    },
    {
      "constant": true,
      "inputs": [],
      "name": "totalProducts",
      "outputs": [
        {
          "name": "",
          "type": "uint256"
        }
      ],
      "payable": false,
      "stateMutability": "view",
      "type": "function",
      "signature": "0x9b9d326d"
    },
    {
      "inputs": [],
      "payable": false,
      "stateMutability": "nonpayable",
      "type": "constructor",
      "signature": "constructor"
    },
    {
      "anonymous": false,
      "inputs": [
        {
          "indexed": false,
          "name": "id",
          "type": "uint256"
        },
        {
          "indexed": false,
          "name": "name",
          "type": "string"
        },
        {
          "indexed": false,
          "name": "price",
          "type": "uint256"
        },
        {
          "indexed": false,
          "name": "sold",
          "type": "bool"
        },
        {
          "indexed": false,
          "name": "owner",
          "type": "address"
        }
      ],
      "name": "productCreated",
      "type": "event",
      "signature": "0x67798386ac74b8b42ce222cebb409c6dcd247d4ed3a6f8a94804b5b58abe9ac0"
    },
    {
      "anonymous": false,
      "inputs": [
        {
          "indexed": false,
          "name": "id",
          "type": "uint256"
        },
        {
          "indexed": false,
          "name": "name",
          "type": "string"
        },
        {
          "indexed": false,
          "name": "price",
          "type": "uint256"
        },
        {
          "indexed": false,
          "name": "sold",
          "type": "bool"
        },
        {
          "indexed": false,
          "name": "owner",
          "type": "address"
        }
      ],
      "name": "productPurchased",
      "type": "event",
      "signature": "0x45eafa96d407e71fcba6f6172e8f2dafc32dcb535440e4b8d2d8b8fd2dc371aa"
    },
    {
      "constant": false,
      "inputs": [
        {
          "name": "_name",
          "type": "string"
        },
        {
          "name": "_price",
          "type": "uint256"
        }
      ],
      "name": "createProduct",
      "outputs": [],
      "payable": false,
      "stateMutability": "nonpayable",
      "type": "function",
      "signature": "0xe9300c6c"
    },
    {
      "constant": false,
      "inputs": [
        {
          "name": "_id",
          "type": "uint256"
        }
      ],
      "name": "purchaseProduct",
      "outputs": [],
      "payable": true,
      "stateMutability": "payable",
      "type": "function",
      "signature": "0x38e76a03"
    }
  ],
  "bytecode": "0x6080604052600060025534801561001557600080fd5b506040805190810160405280601181526020017f4669727374204d61726b6574706c61636500000000000000000000000000000081525060009080519060200190610061929190610067565b5061010c565b828054600181600116156101000203166002900490600052602060002090601f016020900481019282601f106100a857805160ff19168380011785556100d6565b828001600101855582156100d6579182015b828111156100d55782518255916020019190600101906100ba565b5b5090506100e391906100e7565b5090565b61010991905b808211156101055760008160009055506001016100ed565b5090565b90565b610e818061011b6000396000f3fe60806040526004361061006d576000357c0100000000000000000000000000000000000000000000000000000000900463ffffffff16806306fdde031461007257806338e76a03146101025780637acc0b20146101305780639b9d326d14610230578063e9300c6c1461025b575b600080fd5b34801561007e57600080fd5b5061008761032d565b6040518080602001828103825283818151815260200191508051906020019080838360005b838110156100c75780820151818401526020810190506100ac565b50505050905090810190601f1680156100f45780820380516001836020036101000a031916815260200191505b509250505060405180910390f35b61012e6004803603602081101561011857600080fd5b81019080803590602001909291905050506103cb565b005b34801561013c57600080fd5b506101696004803603602081101561015357600080fd5b8101908080359060200190929190505050610982565b6040518086815260200180602001858152602001841515151581526020018373ffffffffffffffffffffffffffffffffffffffff1673ffffffffffffffffffffffffffffffffffffffff168152602001828103825286818151815260200191508051906020019080838360005b838110156101f15780820151818401526020810190506101d6565b50505050905090810190601f16801561021e5780820380516001836020036101000a031916815260200191505b50965050505050505060405180910390f35b34801561023c57600080fd5b50610245610a7d565b6040518082815260200191505060405180910390f35b34801561026757600080fd5b5061032b6004803603604081101561027e57600080fd5b810190808035906020019064010000000081111561029b57600080fd5b8201836020820111156102ad57600080fd5b803590602001918460018302840111640100000000831117156102cf57600080fd5b91908080601f016020809104026020016040519081016040528093929190818152602001838380828437600081840152601f19601f82011690508083019250505050505050919291929080359060200190929190505050610a83565b005b60008054600181600116156101000203166002900480601f0160208091040260200160405190810160405280929190818152602001828054600181600116156101000203166002900480156103c35780601f10610398576101008083540402835291602001916103c3565b820191906000526020600020905b8154815290600101906020018083116103a657829003601f168201915b505050505081565b600081101580156103dd575060025481105b1515610451576040517f08c379a00000000000000000000000000000000000000000000000000000000081526004018080602001828103825260118152602001807f50726f64756374206e6f7420657869737400000000000000000000000000000081525060200191505060405180910390fd5b610459610d68565b6001600083815260200190815260200160002060a0604051908101604052908160008201548152602001600182018054600181600116156101000203166002900480601f01602080910402602001604051908101604052809291908181526020018280546001816001161561010002031660029004801561051b5780601f106104f05761010080835404028352916020019161051b565b820191906000526020600020905b8154815290600101906020018083116104fe57829003601f168201915b50505050508152602001600282015481526020016003820160009054906101000a900460ff161515151581526020016003820160019054906101000a900473ffffffffffffffffffffffffffffffffffffffff1673ffffffffffffffffffffffffffffffffffffffff1673ffffffffffffffffffffffffffffffffffffffff168152505090503481604001511115151561061d576040517f08c379a00000000000000000000000000000000000000000000000000000000081526004018080602001828103825260138152602001807f796f75722062616c616e6365206973206c6f770000000000000000000000000081525060200191505060405180910390fd5b3373ffffffffffffffffffffffffffffffffffffffff16816080015173ffffffffffffffffffffffffffffffffffffffff16141515156106c5576040517f08c379a000000000000000000000000000000000000000000000000000000000815260040180806020018281038252601a8152602001807f62757965722063616e6e6f74206265207468652073656c6c657200000000000081525060200191505060405180910390fd5b806060015115151561073f576040517f08c379a00000000000000000000000000000000000000000000000000000000081526004018080602001828103825260178152602001807f70726f6475637420697320616c726561647920736f6c6400000000000000000081525060200191505060405180910390fd5b806080015173ffffffffffffffffffffffffffffffffffffffff166108fc349081150290604051600060405180830381858888f19350505050158015610789573d6000803e3d6000fd5b5033816080019073ffffffffffffffffffffffffffffffffffffffff16908173ffffffffffffffffffffffffffffffffffffffff16815250506001816060019015159081151581525050806001600084815260200190815260200160002060008201518160000155602082015181600101908051906020019061080d929190610db0565b506040820151816002015560608201518160030160006101000a81548160ff02191690831515021790555060808201518160030160016101000a81548173ffffffffffffffffffffffffffffffffffffffff021916908373ffffffffffffffffffffffffffffffffffffffff1602179055509050507f45eafa96d407e71fcba6f6172e8f2dafc32dcb535440e4b8d2d8b8fd2dc371aa8282602001518360400151846060015185608001516040518086815260200180602001858152602001841515151581526020018373ffffffffffffffffffffffffffffffffffffffff1673ffffffffffffffffffffffffffffffffffffffff168152602001828103825286818151815260200191508051906020019080838360005b83811015610940578082015181840152602081019050610925565b50505050905090810190601f16801561096d5780820380516001836020036101000a031916815260200191505b50965050505050505060405180910390a15050565b6001602052806000526040600020600091509050806000015490806001018054600181600116156101000203166002900480601f016020809104026020016040519081016040528092919081815260200182805460018160011615610100020316600290048015610a345780601f10610a0957610100808354040283529160200191610a34565b820191906000526020600020905b815481529060010190602001808311610a1757829003601f168201915b5050505050908060020154908060030160009054906101000a900460ff16908060030160019054906101000a900473ffffffffffffffffffffffffffffffffffffffff16905085565b60025481565b60008251111515610afc576040517f08c379a00000000000000000000000000000000000000000000000000000000081526004018080602001828103825260108152602001807f4e616d652069732072657175697265640000000000000000000000000000000081525060200191505060405180910390fd5b600081111515610b74576040517f08c379a00000000000000000000000000000000000000000000000000000000081526004018080602001828103825260118152602001807f507269636520697320726571756972656400000000000000000000000000000081525060200191505060405180910390fd5b60a06040519081016040528060025481526020018381526020018281526020016000151581526020013373ffffffffffffffffffffffffffffffffffffffff16815250600160006002548152602001908152602001600020600082015181600001556020820151816001019080519060200190610bf2929190610db0565b506040820151816002015560608201518160030160006101000a81548160ff02191690831515021790555060808201518160030160016101000a81548173ffffffffffffffffffffffffffffffffffffffff021916908373ffffffffffffffffffffffffffffffffffffffff1602179055509050507f67798386ac74b8b42ce222cebb409c6dcd247d4ed3a6f8a94804b5b58abe9ac0600260008154809291906001019190505583836000336040518086815260200180602001858152602001841515151581526020018373ffffffffffffffffffffffffffffffffffffffff1673ffffffffffffffffffffffffffffffffffffffff168152602001828103825286818151815260200191508051906020019080838360005b83811015610d26578082015181840152602081019050610d0b565b50505050905090810190601f168015610d535780820380516001836020036101000a031916815260200191505b50965050505050505060405180910390a15050565b60a060405190810160405280600081526020016060815260200160008152602001600015158152602001600073ffffffffffffffffffffffffffffffffffffffff1681525090565b828054600181600116156101000203166002900490600052602060002090601f016020900481019282601f10610df157805160ff1916838001178555610e1f565b82800160010185558215610e1f579182015b82811115610e1e578251825591602001919060010190610e03565b5b509050610e2c9190610e30565b5090565b610e5291905b80821115610e4e576000816000905550600101610e36565b5090565b9056fea165627a7a7230582000931f0f64a29500068000757dce0a9481e61cb7e053c4b04cfdc7480dba38730029",
  "source": "pragma solidity ^0.5.0;\n\ncontract Marketplace {\n    string public name;\n\n    mapping(uint => Product) public products;\n\n    uint public totalProducts = 0;\n\n    struct Product {\n        uint id;\n        string name;\n        uint price;\n        bool sold;\n        address payable owner;\n    }\n\n    event productCreated(\n        uint id,\n        string name,\n        uint price,\n        bool sold,\n        address payable owner\n    );\n\n    event productPurchased(\n        uint id,\n        string name,\n        uint price,\n        bool sold,\n        address payable owner\n    );\n\n    constructor() public {\n        name = \"First Marketplace\";\n    }\n\n    function createProduct(string memory _name, uint _price) public {\n        require(bytes(_name).length > 0, \"Name is required\");\n        require(_price > 0, \"Price is required\");\n        products[totalProducts] = Product(\n            totalProducts,\n            _name,\n            _price,\n            false,\n            msg.sender\n        );\n        emit productCreated(totalProducts++, _name, _price, false, msg.sender);\n    }\n\n    function purchaseProduct(uint _id) public payable {\n        //checks\n\n        //check id is valid\n        require(_id >= 0 && _id < totalProducts, \"Product not exist\");\n\n        Product memory _product = products[_id];\n\n        //check the balance is high or equal\n\n        require(_product.price <= msg.value, \"your balance is low\");\n\n        //check buyer is not the seller\n\n        require(_product.owner != msg.sender, \"buyer cannot be the seller\");\n\n        //check product is not sold\n\n        require(!_product.sold, \"product is already sold\");\n\n        address(_product.owner).transfer(msg.value);\n        _product.owner = msg.sender;\n        _product.sold = true;\n\n        products[_id] = _product;\n\n        emit productPurchased(\n            _id,\n            _product.name,\n            _product.price,\n            _product.sold,\n            _product.owner\n        );\n    }\n}\n",
  "sourcePath": "/Users/asad/Desktop/marketPlace/src/contracts/MarketPlace.sol",
  "compiler": {
    "name": "solc",
    "version": "0.5.0+commit.1d4f565a.Emscripten.clang"
  },
  "schemaVersion": "3.0.2",
  "updatedAt": "2023-03-22T09:46:14.261Z",
  "devdoc": {
    "methods": {}
  },
  "userdoc": {
    "methods": {}
  }
}